:100000000C942A000C943F000C943F000C943F0089
:100010000C943F000C943F000C943F000C943F0064
:100020000C943F000C943F000C943F000C943F0054
:100030000C943F000C943F000C943F000C943F0044
:100040000C943F000C943F000C943F000C943F0034
:100050000C943F0011241FBECFE5D8E0DEBFCDBF1A
:1000600011E0A0E6B0E0E4ECF9E002C005900D92EA
:10007000AC34B107D9F70E94F1010C94E0040C9460
:10008000000088BB82B3877F82BB82B38F7B82BB39
:1000900082B3806882BB8FE19EE40197F1F700C0D4
:1000A000000082B38F7782BB089588BB82B38860DB
:1000B00082BB82B38F7B82BB82B3806882BB8FE1BD
:1000C0009EE40197F1F700C0000082B38F7782BBF6
:1000D000089588E30E9441008FEC97E00197F1F7C3
:1000E00000C0000081E00E9441008FEC97E0019782
:1000F000F1F700C0000082E00E9441008FEC97E021
:100100000197F1F700C0000086E00E9441008FECEB
:1001100097E00197F1F700C0000080E80E944100DD
:100120008FEC97E00197F1F700C0000008950F935E
:100130001F93CF93DF938C01C0E0D0E003C00E94F7
:1001400055002196F801EC0FFD1F80818111F7CF3A
:10015000DF91CF911F910F91089586E880BD88E1CE
:100160008AB983E389B908955F9BFECF1BB88CB130
:1001700008958FEF87BB88EC81BB0E9469008FE1F7
:100180009EE40197F1F700C000008CE00E9441005E
:100190008FE19EE40197F1F700C000008CE191E04F
:1001A0000E9497009FE728E381E091502040804023
:1001B000E1F700C0000080EC0E9441009FEF20E7C3
:1001C00082E0915020408040E1F700C0000086E2CC
:1001D00091E00E9497000895EF92FF920F931F9372
:1001E000CF93DF93CDB7DEB7C05CD1090FB6F894DB
:1001F000DEBF0FBECDBF8AB380648ABB8AB380687E
:100200008ABB8BB38F7B8BBB8BB38F778BBB80E32E
:10021000E0E6F0E0DE01159601900D928A95E1F797
:1002200088E2E0E9F0E0DE01D59601900D928A9532
:10023000E1F70E94AD002FEF30E742E0215030405F
:100240004040E1F700C0000080E090E008C0E1E03D
:10025000F0E0EC0FFD1FE80FF91F108201968430CB
:100260009105ACF300E010E026C00E94B40020E04D
:1002700030E01CC0F901EE0FFF1FE20FF31FEE0F7D
:10028000FF1FEE0FFF1FA1E0B0E0AC0FBD1FEA0F94
:10029000FB1FE00FF11F9481891306C0FD01E20FDF
:1002A000F31F90819F5F90832F5F3F4F2430310574
:1002B0000CF30F5F1F4F0C301105BCF200E010E093
:1002C0007EC0E1E0F0E0EC0FFD1FE00FF11F808148
:1002D0008C3009F072C07E01BDE5EB0EF11C88E0A8
:1002E000E8EBF0E0D70101900D928A95E1F7F70174
:1002F00038968CE5DF011D928A95E9F7C801880FD1
:10030000991F880F991F880F991F9801220F331F7B
:10031000820F931F25E330E02C0F3D1F820F931FA8
:100320009F938F9380E391E09F938F93FF92EF923F
:100330000E94F60181E00E9441008FEC97E0019756
:10034000F1F700C00000C7010E9497009FE7A8E3F3
:10035000B1E09150A040B040E1F700C0000080EC57
:100360000E9441002FEF30E742E0215030404040F2
:10037000E1F700C000008BE391E00E9497005FEF7F
:1003800087EA91E6515080409040E1F700C00000BC
:1003900081E00E944100AFECB7E01197F1F700C097
:1003A00000008BB380648BBB8BB38F7B8BBB0F90B8
:1003B0000F900F900F900F900F900F5F1F4F043012
:1003C00011050CF47ECFC054DF4F0FB6F894DEBF9A
:1003D0000FBECDBFDF91CF911F910F91FF90EF9096
:1003E00008950E94B9000E94EC00FBCFAEE0B0E09F
:1003F000ECEFF1E00C94B7040D891E8986E08C8344
:100400001A8309838FEF9FE79E838D83AE01475E3A
:100410005F4F6F89788DCE0101960E941802EF819F
:10042000F885E00FF11F10822E96E4E00C94D304BF
:10043000ABE0B0E0EEE1F2E00C94A9046C017B01CA
:100440008A01FC0117821682838181FFCCC1CE0113
:1004500001963C01F6019381F70193FD859193FF8D
:1004600081917F01882309F4BAC1853239F493FD63
:10047000859193FF81917F01853229F4B60190E047
:100480000E940F04E7CF912C212C312CFFE1F315B2
:10049000D8F08B3279F038F4803279F08332A1F4DD
:1004A000232D20611DC08D3261F0803369F4232D2E
:1004B000216016C0832D8260382EE32DE4603E2E2D
:1004C0002AC0F32DF8601DC037FC2DC020ED280F89
:1004D0002A3040F08E32B9F436FC81C1232D2064DD
:1004E000322E19C036FE06C08AE0989E200D1124D7
:1004F000922E11C0EAE02E9E200D1124222EF32D03
:10050000F0623F2E08C08C3621F4832D8068382E8F
:1005100002C0883641F4F70193FD859193FF8191E4
:100520007F018111B3CF982F9F7D9554933028F48C
:100530000C5F1F4F9FE399830DC0833631F08337E3
:1005400071F0833509F059C021C0F8018081898399
:100550000E5F1F4F88248394912C530113C02801F0
:10056000F2E04F0E511CF801A080B18036FE03C0AE
:10057000692D70E002C06FEF7FEFC5010E94040497
:100580004C018201F32DFF773F2E16C0280122E097
:10059000420E511CF801A080B18036FE03C0692DC7
:1005A00070E002C06FEF7FEFC5010E94F9034C01BC
:1005B000F32DF0683F2E820133FC1BC0822D90E0AA
:1005C00088169906B0F4B60180E290E00E940F040C
:1005D0002A94F4CFF50137FC859137FE81915F01B4
:1005E000B60190E00E940F0421102A9421E0821AA3
:1005F00091088114910471F7E8C0843611F08936AE
:1006000041F5F80137FE07C06081718182819381D5
:100610000C5F1F4F08C060817181072E000C880B92
:10062000990B0E5F1F4FF32DFF763F2E97FF09C0EA
:1006300090958095709561957F4F8F4F9F4FF06893
:100640003F2E2AE030E0A3010E944B04882E86183A
:1006500045C0853731F4232D2F7EB22E2AE030E0BD
:1006600025C0932D997FB92E8F36C1F018F48835A7
:1006700079F0B5C0803719F0883721F0B0C0E92F84
:10068000E061BE2EB4FE0DC0FB2DF460BF2E09C08C
:1006900034FE0AC0292F2660B22E06C028E030E0C2
:1006A00005C020E130E002C020E132E0F801B7FEF1
:1006B00007C060817181828193810C5F1F4F06C0EA
:1006C0006081718180E090E00E5F1F4FA3010E9466
:1006D0004B04882E8618FB2DFF773F2E36FE0DC06B
:1006E000232D2E7FA22E891458F434FE0BC032FC29
:1006F00009C0832D8E7EA82E05C0B82CA32C03C064
:10070000B82C01C0B92CA4FE0FC0FE01E80DF11DEC
:100710008081803321F49A2D997EA92E09C0A2FEF2
:1007200006C0B394B39404C08A2D867809F0B394BC
:10073000A3FC11C0A0FE06C0B21488F4280C922CB1
:100740009B180EC0B21460F4B60180E290E00E94E3
:100750000F04B394F7CFB21418F42B1802C0982CDE
:10076000212CA4FE10C0B60180E390E00E940F048B
:10077000A2FE17C0A1FC03C088E790E002C088E594
:1007800090E0B6010CC08A2D867859F0A1FE02C017
:100790008BE201C080E2A7FC8DE2B60190E00E94EE
:1007A0000F04891438F4B60180E390E00E940F042E
:1007B0009A94F7CF8A94F301E80DF11D8081B60178
:1007C00090E00E940F048110F5CF222009F442CE60
:1007D000B60180E290E00E940F042A94F6CFF60161
:1007E0008681978102C08FEF9FEF2B96E2E10C94F8
:1007F000C504FC010590615070400110D8F7809548
:1008000090958E0F9F1F0895FC01615070400190DC
:100810000110D8F7809590958E0F9F1F08950F9324
:100820001F93CF93DF93FB01238121FD03C08FEF43
:100830009FEF2CC022FF16C046815781248135814D
:100840004217530744F4A081B1819D012F5F3F4FB0
:10085000318320838C93268137812F5F3F4F3783ED
:10086000268314C08B01EC01FB010084F185E02D8F
:100870000995892BE1F6D80116968D919C911797D1
:10088000019617969C938E931697CE01DF91CF9188
:100890001F910F910895FA01AA27283051F12031B4
:1008A00081F1E8946F936E7F6E5F7F4F8F4F9F4F04
:1008B000AF4FB1E03ED0B4E03CD0670F781F891F46
:1008C0009A1FA11D680F791F8A1F911DA11D6A0F14
:1008D000711D811D911DA11D20D009F468943F91C7
:1008E0002AE0269F11243019305D3193DEF6CF01C6
:1008F0000895462F4770405D4193B3E00FD0C9F78C
:10090000F6CF462F4F70405D4A3318F0495D31FDF8
:100910004052419302D0A9F7EACFB4E0A69597954B
:10092000879577956795BA95C9F700976105710521
:1009300008959B01AC010A2E06945795479537956B
:100940002795BA95C9F7620F731F841F951FA01DC5
:1009500008952F923F924F925F926F927F928F9263
:100960009F92AF92BF92CF92DF92EF92FF920F933E
:100970001F93CF93DF93CDB7DEB7CA1BDB0B0FB648
:10098000F894DEBF0FBECDBF09942A883988488805
:100990005F846E847D848C849B84AA84B984C8849B
:1009A000DF80EE80FD800C811B81AA81B981CE0F92
:1009B000D11D0FB6F894DEBF0FBECDBFED01089577
:0409C000F894FFCFD9
:1009C40031333030364636423533393131333030D5
:1009D4003646413333374635313330303646344288
:1009E400363737333133303036464333353141329D
:1009F40048656E7279000000000044617669640005
:100A0400000000004A616D6573000000000050653D
:100A1400746572000000000073747564656E740080
:100A240000000000000000000000000000000000C2
:100A340000000000000000000000000000000000B2
:100A440000000000000000000000000000000000A2
:100A54000000000000000000000000000000000092
:100A64000000000000000000000000000000000082
:100A740000000000000000000000000053686F77D1
:100A840020596F75720052464944204361726400D4
:100A940053747564656E7420257300417474656EB7
:0C0AA40064616E636520446F6E650000A5
:00000001FF
